{
  "_format": "hh-sol-artifact-1",
  "contractName": "ReputationNFT",
  "sourceName": "contracts/ReputationNFT.sol",
  "abi": [
    {
      "inputs": [
        {
          "internalType": "string",
          "name": "_name",
          "type": "string"
        },
        {
          "internalType": "string",
          "name": "_symbol",
          "type": "string"
        }
      ],
      "stateMutability": "nonpayable",
      "type": "constructor"
    },
    {
      "anonymous": false,
      "inputs": [
        {
          "indexed": true,
          "internalType": "address",
          "name": "owner",
          "type": "address"
        },
        {
          "indexed": true,
          "internalType": "address",
          "name": "approved",
          "type": "address"
        },
        {
          "indexed": true,
          "internalType": "uint256",
          "name": "tokenId",
          "type": "uint256"
        }
      ],
      "name": "Approval",
      "type": "event"
    },
    {
      "anonymous": false,
      "inputs": [
        {
          "indexed": true,
          "internalType": "address",
          "name": "owner",
          "type": "address"
        },
        {
          "indexed": true,
          "internalType": "address",
          "name": "operator",
          "type": "address"
        },
        {
          "indexed": false,
          "internalType": "bool",
          "name": "approved",
          "type": "bool"
        }
      ],
      "name": "ApprovalForAll",
      "type": "event"
    },
    {
      "anonymous": false,
      "inputs": [
        {
          "indexed": true,
          "internalType": "address",
          "name": "to",
          "type": "address"
        },
        {
          "indexed": true,
          "internalType": "uint256",
          "name": "tokenId",
          "type": "uint256"
        }
      ],
      "name": "ReputationNFTMinted",
      "type": "event"
    },
    {
      "anonymous": false,
      "inputs": [
        {
          "indexed": true,
          "internalType": "address",
          "name": "user",
          "type": "address"
        },
        {
          "indexed": true,
          "internalType": "uint256",
          "name": "tokenId",
          "type": "uint256"
        }
      ],
      "name": "ReputationNFTUpdated",
      "type": "event"
    },
    {
      "anonymous": false,
      "inputs": [
        {
          "indexed": true,
          "internalType": "bytes32",
          "name": "role",
          "type": "bytes32"
        },
        {
          "indexed": true,
          "internalType": "bytes32",
          "name": "previousAdminRole",
          "type": "bytes32"
        },
        {
          "indexed": true,
          "internalType": "bytes32",
          "name": "newAdminRole",
          "type": "bytes32"
        }
      ],
      "name": "RoleAdminChanged",
      "type": "event"
    },
    {
      "anonymous": false,
      "inputs": [
        {
          "indexed": true,
          "internalType": "bytes32",
          "name": "role",
          "type": "bytes32"
        },
        {
          "indexed": true,
          "internalType": "address",
          "name": "account",
          "type": "address"
        },
        {
          "indexed": true,
          "internalType": "address",
          "name": "sender",
          "type": "address"
        }
      ],
      "name": "RoleGranted",
      "type": "event"
    },
    {
      "anonymous": false,
      "inputs": [
        {
          "indexed": true,
          "internalType": "bytes32",
          "name": "role",
          "type": "bytes32"
        },
        {
          "indexed": true,
          "internalType": "address",
          "name": "account",
          "type": "address"
        },
        {
          "indexed": true,
          "internalType": "address",
          "name": "sender",
          "type": "address"
        }
      ],
      "name": "RoleRevoked",
      "type": "event"
    },
    {
      "anonymous": false,
      "inputs": [
        {
          "indexed": true,
          "internalType": "address",
          "name": "from",
          "type": "address"
        },
        {
          "indexed": true,
          "internalType": "address",
          "name": "to",
          "type": "address"
        },
        {
          "indexed": true,
          "internalType": "uint256",
          "name": "tokenId",
          "type": "uint256"
        }
      ],
      "name": "Transfer",
      "type": "event"
    },
    {
      "inputs": [],
      "name": "DEFAULT_ADMIN_ROLE",
      "outputs": [
        {
          "internalType": "bytes32",
          "name": "",
          "type": "bytes32"
        }
      ],
      "stateMutability": "view",
      "type": "function"
    },
    {
      "inputs": [],
      "name": "MINTER_ROLE",
      "outputs": [
        {
          "internalType": "bytes32",
          "name": "",
          "type": "bytes32"
        }
      ],
      "stateMutability": "view",
      "type": "function"
    },
    {
      "inputs": [
        {
          "internalType": "address",
          "name": "to",
          "type": "address"
        },
        {
          "internalType": "uint256",
          "name": "tokenId",
          "type": "uint256"
        }
      ],
      "name": "approve",
      "outputs": [],
      "stateMutability": "nonpayable",
      "type": "function"
    },
    {
      "inputs": [
        {
          "internalType": "address",
          "name": "owner",
          "type": "address"
        }
      ],
      "name": "balanceOf",
      "outputs": [
        {
          "internalType": "uint256",
          "name": "",
          "type": "uint256"
        }
      ],
      "stateMutability": "view",
      "type": "function"
    },
    {
      "inputs": [
        {
          "internalType": "address",
          "name": "_from",
          "type": "address"
        },
        {
          "internalType": "uint256",
          "name": "_tokenId",
          "type": "uint256"
        }
      ],
      "name": "burnReputationNFT",
      "outputs": [],
      "stateMutability": "nonpayable",
      "type": "function"
    },
    {
      "inputs": [
        {
          "internalType": "uint256",
          "name": "tokenId",
          "type": "uint256"
        }
      ],
      "name": "getApproved",
      "outputs": [
        {
          "internalType": "address",
          "name": "",
          "type": "address"
        }
      ],
      "stateMutability": "view",
      "type": "function"
    },
    {
      "inputs": [
        {
          "internalType": "address",
          "name": "_user",
          "type": "address"
        }
      ],
      "name": "getReputationNFTId",
      "outputs": [
        {
          "internalType": "uint256",
          "name": "",
          "type": "uint256"
        }
      ],
      "stateMutability": "view",
      "type": "function"
    },
    {
      "inputs": [
        {
          "internalType": "bytes32",
          "name": "role",
          "type": "bytes32"
        }
      ],
      "name": "getRoleAdmin",
      "outputs": [
        {
          "internalType": "bytes32",
          "name": "",
          "type": "bytes32"
        }
      ],
      "stateMutability": "view",
      "type": "function"
    },
    {
      "inputs": [
        {
          "internalType": "bytes32",
          "name": "role",
          "type": "bytes32"
        },
        {
          "internalType": "address",
          "name": "account",
          "type": "address"
        }
      ],
      "name": "grantRole",
      "outputs": [],
      "stateMutability": "nonpayable",
      "type": "function"
    },
    {
      "inputs": [
        {
          "internalType": "bytes32",
          "name": "role",
          "type": "bytes32"
        },
        {
          "internalType": "address",
          "name": "account",
          "type": "address"
        }
      ],
      "name": "hasRole",
      "outputs": [
        {
          "internalType": "bool",
          "name": "",
          "type": "bool"
        }
      ],
      "stateMutability": "view",
      "type": "function"
    },
    {
      "inputs": [
        {
          "internalType": "address",
          "name": "owner",
          "type": "address"
        },
        {
          "internalType": "address",
          "name": "operator",
          "type": "address"
        }
      ],
      "name": "isApprovedForAll",
      "outputs": [
        {
          "internalType": "bool",
          "name": "",
          "type": "bool"
        }
      ],
      "stateMutability": "view",
      "type": "function"
    },
    {
      "inputs": [
        {
          "internalType": "address",
          "name": "_to",
          "type": "address"
        }
      ],
      "name": "mintReputationNFT",
      "outputs": [
        {
          "internalType": "uint256",
          "name": "",
          "type": "uint256"
        }
      ],
      "stateMutability": "nonpayable",
      "type": "function"
    },
    {
      "inputs": [],
      "name": "name",
      "outputs": [
        {
          "internalType": "string",
          "name": "",
          "type": "string"
        }
      ],
      "stateMutability": "view",
      "type": "function"
    },
    {
      "inputs": [
        {
          "internalType": "uint256",
          "name": "tokenId",
          "type": "uint256"
        }
      ],
      "name": "ownerOf",
      "outputs": [
        {
          "internalType": "address",
          "name": "",
          "type": "address"
        }
      ],
      "stateMutability": "view",
      "type": "function"
    },
    {
      "inputs": [
        {
          "internalType": "bytes32",
          "name": "role",
          "type": "bytes32"
        },
        {
          "internalType": "address",
          "name": "account",
          "type": "address"
        }
      ],
      "name": "renounceRole",
      "outputs": [],
      "stateMutability": "nonpayable",
      "type": "function"
    },
    {
      "inputs": [
        {
          "internalType": "bytes32",
          "name": "role",
          "type": "bytes32"
        },
        {
          "internalType": "address",
          "name": "account",
          "type": "address"
        }
      ],
      "name": "revokeRole",
      "outputs": [],
      "stateMutability": "nonpayable",
      "type": "function"
    },
    {
      "inputs": [
        {
          "internalType": "address",
          "name": "from",
          "type": "address"
        },
        {
          "internalType": "address",
          "name": "to",
          "type": "address"
        },
        {
          "internalType": "uint256",
          "name": "tokenId",
          "type": "uint256"
        }
      ],
      "name": "safeTransferFrom",
      "outputs": [],
      "stateMutability": "nonpayable",
      "type": "function"
    },
    {
      "inputs": [
        {
          "internalType": "address",
          "name": "from",
          "type": "address"
        },
        {
          "internalType": "address",
          "name": "to",
          "type": "address"
        },
        {
          "internalType": "uint256",
          "name": "tokenId",
          "type": "uint256"
        },
        {
          "internalType": "bytes",
          "name": "data",
          "type": "bytes"
        }
      ],
      "name": "safeTransferFrom",
      "outputs": [],
      "stateMutability": "nonpayable",
      "type": "function"
    },
    {
      "inputs": [
        {
          "internalType": "address",
          "name": "operator",
          "type": "address"
        },
        {
          "internalType": "bool",
          "name": "approved",
          "type": "bool"
        }
      ],
      "name": "setApprovalForAll",
      "outputs": [],
      "stateMutability": "nonpayable",
      "type": "function"
    },
    {
      "inputs": [
        {
          "internalType": "bytes4",
          "name": "interfaceId",
          "type": "bytes4"
        }
      ],
      "name": "supportsInterface",
      "outputs": [
        {
          "internalType": "bool",
          "name": "",
          "type": "bool"
        }
      ],
      "stateMutability": "view",
      "type": "function"
    },
    {
      "inputs": [],
      "name": "symbol",
      "outputs": [
        {
          "internalType": "string",
          "name": "",
          "type": "string"
        }
      ],
      "stateMutability": "view",
      "type": "function"
    },
    {
      "inputs": [
        {
          "internalType": "uint256",
          "name": "tokenId",
          "type": "uint256"
        }
      ],
      "name": "tokenURI",
      "outputs": [
        {
          "internalType": "string",
          "name": "",
          "type": "string"
        }
      ],
      "stateMutability": "view",
      "type": "function"
    },
    {
      "inputs": [
        {
          "internalType": "address",
          "name": "from",
          "type": "address"
        },
        {
          "internalType": "address",
          "name": "to",
          "type": "address"
        },
        {
          "internalType": "uint256",
          "name": "tokenId",
          "type": "uint256"
        }
      ],
      "name": "transferFrom",
      "outputs": [],
      "stateMutability": "nonpayable",
      "type": "function"
    },
    {
      "inputs": [
        {
          "internalType": "address",
          "name": "",
          "type": "address"
        }
      ],
      "name": "userReputationNFT",
      "outputs": [
        {
          "internalType": "uint256",
          "name": "",
          "type": "uint256"
        }
      ],
      "stateMutability": "view",
      "type": "function"
    }
  ],
  "bytecode": "0x60806040523480156200001157600080fd5b5060405162003cef38038062003cef83398181016040528101906200003791906200038a565b818181600090816200004a91906200065a565b5080600190816200005c91906200065a565b505050620000746000801b336200007c60201b60201c565b505062000741565b6200008e82826200009260201b60201c565b5050565b620000a482826200018460201b60201c565b620001805760016006600084815260200190815260200160002060000160008373ffffffffffffffffffffffffffffffffffffffff1673ffffffffffffffffffffffffffffffffffffffff16815260200190815260200160002060006101000a81548160ff02191690831515021790555062000125620001ef60201b60201c565b73ffffffffffffffffffffffffffffffffffffffff168173ffffffffffffffffffffffffffffffffffffffff16837f2f8788117e7eff1d82e926ec794901d17c78024a50270940304540a733656f0d60405160405180910390a45b5050565b60006006600084815260200190815260200160002060000160008373ffffffffffffffffffffffffffffffffffffffff1673ffffffffffffffffffffffffffffffffffffffff16815260200190815260200160002060009054906101000a900460ff16905092915050565b600033905090565b6000604051905090565b600080fd5b600080fd5b600080fd5b600080fd5b6000601f19601f8301169050919050565b7f4e487b7100000000000000000000000000000000000000000000000000000000600052604160045260246000fd5b620002608262000215565b810181811067ffffffffffffffff8211171562000282576200028162000226565b5b80604052505050565b600062000297620001f7565b9050620002a5828262000255565b919050565b600067ffffffffffffffff821115620002c857620002c762000226565b5b620002d38262000215565b9050602081019050919050565b60005b8381101562000300578082015181840152602081019050620002e3565b60008484015250505050565b6000620003236200031d84620002aa565b6200028b565b90508281526020810184848401111562000342576200034162000210565b5b6200034f848285620002e0565b509392505050565b600082601f8301126200036f576200036e6200020b565b5b8151620003818482602086016200030c565b91505092915050565b60008060408385031215620003a457620003a362000201565b5b600083015167ffffffffffffffff811115620003c557620003c462000206565b5b620003d38582860162000357565b925050602083015167ffffffffffffffff811115620003f757620003f662000206565b5b620004058582860162000357565b9150509250929050565b600081519050919050565b7f4e487b7100000000000000000000000000000000000000000000000000000000600052602260045260246000fd5b600060028204905060018216806200046257607f821691505b6020821081036200047857620004776200041a565b5b50919050565b60008190508160005260206000209050919050565b60006020601f8301049050919050565b600082821b905092915050565b600060088302620004e27fffffffffffffffffffffffffffffffffffffffffffffffffffffffffffffffff82620004a3565b620004ee8683620004a3565b95508019841693508086168417925050509392505050565b6000819050919050565b6000819050919050565b60006200053b620005356200052f8462000506565b62000510565b62000506565b9050919050565b6000819050919050565b62000557836200051a565b6200056f620005668262000542565b848454620004b0565b825550505050565b600090565b6200058662000577565b620005938184846200054c565b505050565b5b81811015620005bb57620005af6000826200057c565b60018101905062000599565b5050565b601f8211156200060a57620005d4816200047e565b620005df8462000493565b81016020851015620005ef578190505b62000607620005fe8562000493565b83018262000598565b50505b505050565b600082821c905092915050565b60006200062f600019846008026200060f565b1980831691505092915050565b60006200064a83836200061c565b9150826002028217905092915050565b62000665826200040f565b67ffffffffffffffff81111562000681576200068062000226565b5b6200068d825462000449565b6200069a828285620005bf565b600060209050601f831160018114620006d25760008415620006bd578287015190505b620006c985826200063c565b86555062000739565b601f198416620006e2866200047e565b60005b828110156200070c57848901518255600182019150602085019450602081019050620006e5565b868310156200072c578489015162000728601f8916826200061c565b8355505b6001600288020188555050505b505050505050565b61359e80620007516000396000f3fe608060405234801561001057600080fd5b50600436106101585760003560e01c80636352211e116100c3578063b88d4fde1161007c578063b88d4fde146103fb578063c87b56dd14610417578063d539139314610447578063d547741f14610465578063e985e9c514610481578063ea62781d146104b157610158565b80636352211e1461031357806370a082311461034357806391d148541461037357806395d89b41146103a3578063a217fddf146103c1578063a22cb465146103df57610158565b8063248a9ca311610115578063248a9ca3146102435780632f2ff15d1461027357806333d6e1541461028f57806336568abe146102ab57806342842e0e146102c75780635b48ca3b146102e357610158565b806301ffc9a71461015d57806306fdde031461018d578063081812fc146101ab578063095ea7b3146101db578063109877f2146101f757806323b872dd14610227575b600080fd5b6101776004803603810190610172919061246e565b6104e1565b60405161018491906124b6565b60405180910390f35b6101956104f3565b6040516101a29190612561565b60405180910390f35b6101c560048036038101906101c091906125b9565b610585565b6040516101d29190612627565b60405180910390f35b6101f560048036038101906101f0919061266e565b6105cb565b005b610211600480360381019061020c91906126ae565b6106e2565b60405161021e91906126ea565b60405180910390f35b610241600480360381019061023c9190612705565b6106fa565b005b61025d6004803603810190610258919061278e565b61075a565b60405161026a91906127ca565b60405180910390f35b61028d600480360381019061028891906127e5565b61077a565b005b6102a960048036038101906102a4919061266e565b61079b565b005b6102c560048036038101906102c091906127e5565b6108db565b005b6102e160048036038101906102dc9190612705565b61095e565b005b6102fd60048036038101906102f891906126ae565b61097e565b60405161030a91906126ea565b60405180910390f35b61032d600480360381019061032891906125b9565b6109c7565b60405161033a9190612627565b60405180910390f35b61035d600480360381019061035891906126ae565b610a4d565b60405161036a91906126ea565b60405180910390f35b61038d600480360381019061038891906127e5565b610b04565b60405161039a91906124b6565b60405180910390f35b6103ab610b6f565b6040516103b89190612561565b60405180910390f35b6103c9610c01565b6040516103d691906127ca565b60405180910390f35b6103f960048036038101906103f49190612851565b610c08565b005b610415600480360381019061041091906129c6565b610c1e565b005b610431600480360381019061042c91906125b9565b610c80565b60405161043e9190612561565b60405180910390f35b61044f610ce8565b60405161045c91906127ca565b60405180910390f35b61047f600480360381019061047a91906127e5565b610d0c565b005b61049b60048036038101906104969190612a49565b610d2d565b6040516104a891906124b6565b60405180910390f35b6104cb60048036038101906104c691906126ae565b610dc1565b6040516104d891906126ea565b60405180910390f35b60006104ec82610ea1565b9050919050565b60606000805461050290612ab8565b80601f016020809104026020016040519081016040528092919081815260200182805461052e90612ab8565b801561057b5780601f106105505761010080835404028352916020019161057b565b820191906000526020600020905b81548152906001019060200180831161055e57829003601f168201915b5050505050905090565b600061059082610f1b565b6004600083815260200190815260200160002060009054906101000a900473ffffffffffffffffffffffffffffffffffffffff169050919050565b60006105d6826109c7565b90508073ffffffffffffffffffffffffffffffffffffffff168373ffffffffffffffffffffffffffffffffffffffff1603610646576040517f08c379a000000000000000000000000000000000000000000000000000000000815260040161063d90612b5b565b60405180910390fd5b8073ffffffffffffffffffffffffffffffffffffffff16610665610f66565b73ffffffffffffffffffffffffffffffffffffffff16148061069457506106938161068e610f66565b610d2d565b5b6106d3576040517f08c379a00000000000000000000000000000000000000000000000000000000081526004016106ca90612bed565b60405180910390fd5b6106dd8383610f6e565b505050565b60086020528060005260406000206000915090505481565b61070b610705610f66565b82611027565b61074a576040517f08c379a000000000000000000000000000000000000000000000000000000000815260040161074190612c7f565b60405180910390fd5b6107558383836110bc565b505050565b600060066000838152602001908152602001600020600101549050919050565b6107838261075a565b61078c816113b5565b61079683836113c9565b505050565b7f9f2df0fed2c77648de5860a4cc508cd0818c85b8b8a1ab4ceeef8d981c8956a66107c5816113b5565b81600860008573ffffffffffffffffffffffffffffffffffffffff1673ffffffffffffffffffffffffffffffffffffffff1681526020019081526020016000205414610846576040517f08c379a000000000000000000000000000000000000000000000000000000000815260040161083d90612d11565b60405180910390fd5b61084f826114aa565b600860008473ffffffffffffffffffffffffffffffffffffffff1673ffffffffffffffffffffffffffffffffffffffff16815260200190815260200160002060009055818373ffffffffffffffffffffffffffffffffffffffff167fe65137d744863e025f4b8077ceb9785c31a543a0583359392ac511b4843cd17660405160405180910390a3505050565b6108e3610f66565b73ffffffffffffffffffffffffffffffffffffffff168173ffffffffffffffffffffffffffffffffffffffff1614610950576040517f08c379a000000000000000000000000000000000000000000000000000000000815260040161094790612da3565b60405180910390fd5b61095a82826115f8565b5050565b61097983838360405180602001604052806000815250610c1e565b505050565b6000600860008373ffffffffffffffffffffffffffffffffffffffff1673ffffffffffffffffffffffffffffffffffffffff168152602001908152602001600020549050919050565b6000806109d3836116da565b9050600073ffffffffffffffffffffffffffffffffffffffff168173ffffffffffffffffffffffffffffffffffffffff1603610a44576040517f08c379a0000000000000000000000000000000000000000000000000000000008152600401610a3b90612e0f565b60405180910390fd5b80915050919050565b60008073ffffffffffffffffffffffffffffffffffffffff168273ffffffffffffffffffffffffffffffffffffffff1603610abd576040517f08c379a0000000000000000000000000000000000000000000000000000000008152600401610ab490612ea1565b60405180910390fd5b600360008373ffffffffffffffffffffffffffffffffffffffff1673ffffffffffffffffffffffffffffffffffffffff168152602001908152602001600020549050919050565b60006006600084815260200190815260200160002060000160008373ffffffffffffffffffffffffffffffffffffffff1673ffffffffffffffffffffffffffffffffffffffff16815260200190815260200160002060009054906101000a900460ff16905092915050565b606060018054610b7e90612ab8565b80601f0160208091040260200160405190810160405280929190818152602001828054610baa90612ab8565b8015610bf75780601f10610bcc57610100808354040283529160200191610bf7565b820191906000526020600020905b815481529060010190602001808311610bda57829003601f168201915b5050505050905090565b6000801b81565b610c1a610c13610f66565b8383611717565b5050565b610c2f610c29610f66565b83611027565b610c6e576040517f08c379a0000000000000000000000000000000000000000000000000000000008152600401610c6590612c7f565b60405180910390fd5b610c7a84848484611883565b50505050565b6060610c8b82610f1b565b6000610c956118df565b90506000815111610cb55760405180602001604052806000815250610ce0565b80610cbf846118f6565b604051602001610cd0929190612efd565b6040516020818303038152906040525b915050919050565b7f9f2df0fed2c77648de5860a4cc508cd0818c85b8b8a1ab4ceeef8d981c8956a681565b610d158261075a565b610d1e816113b5565b610d2883836115f8565b505050565b6000600560008473ffffffffffffffffffffffffffffffffffffffff1673ffffffffffffffffffffffffffffffffffffffff16815260200190815260200160002060008373ffffffffffffffffffffffffffffffffffffffff1673ffffffffffffffffffffffffffffffffffffffff16815260200190815260200160002060009054906101000a900460ff16905092915050565b60007f9f2df0fed2c77648de5860a4cc508cd0818c85b8b8a1ab4ceeef8d981c8956a6610ded816113b5565b610df760076119c4565b6000610e0360076119da565b9050610e0f84826119e8565b80600860008673ffffffffffffffffffffffffffffffffffffffff1673ffffffffffffffffffffffffffffffffffffffff16815260200190815260200160002081905550808473ffffffffffffffffffffffffffffffffffffffff167fe3c1e67a28dbde69e5a710c034aacf3c4950b8d0fc8b9c99c98d4c85134af1e460405160405180910390a38092505050919050565b60007f7965db0b000000000000000000000000000000000000000000000000000000007bffffffffffffffffffffffffffffffffffffffffffffffffffffffff1916827bffffffffffffffffffffffffffffffffffffffffffffffffffffffff19161480610f145750610f1382611a06565b5b9050919050565b610f2481611ae8565b610f63576040517f08c379a0000000000000000000000000000000000000000000000000000000008152600401610f5a90612e0f565b60405180910390fd5b50565b600033905090565b816004600083815260200190815260200160002060006101000a81548173ffffffffffffffffffffffffffffffffffffffff021916908373ffffffffffffffffffffffffffffffffffffffff160217905550808273ffffffffffffffffffffffffffffffffffffffff16610fe1836109c7565b73ffffffffffffffffffffffffffffffffffffffff167f8c5be1e5ebec7d5bd14f71427d1e84f3dd0314c0f7b2291e5b200ac8c7c3b92560405160405180910390a45050565b600080611033836109c7565b90508073ffffffffffffffffffffffffffffffffffffffff168473ffffffffffffffffffffffffffffffffffffffff16148061107557506110748185610d2d565b5b806110b357508373ffffffffffffffffffffffffffffffffffffffff1661109b84610585565b73ffffffffffffffffffffffffffffffffffffffff16145b91505092915050565b8273ffffffffffffffffffffffffffffffffffffffff166110dc826109c7565b73ffffffffffffffffffffffffffffffffffffffff1614611132576040517f08c379a000000000000000000000000000000000000000000000000000000000815260040161112990612f93565b60405180910390fd5b600073ffffffffffffffffffffffffffffffffffffffff168273ffffffffffffffffffffffffffffffffffffffff16036111a1576040517f08c379a000000000000000000000000000000000000000000000000000000000815260040161119890613025565b60405180910390fd5b6111ae8383836001611b29565b8273ffffffffffffffffffffffffffffffffffffffff166111ce826109c7565b73ffffffffffffffffffffffffffffffffffffffff1614611224576040517f08c379a000000000000000000000000000000000000000000000000000000000815260040161121b90612f93565b60405180910390fd5b6004600082815260200190815260200160002060006101000a81549073ffffffffffffffffffffffffffffffffffffffff02191690556001600360008573ffffffffffffffffffffffffffffffffffffffff1673ffffffffffffffffffffffffffffffffffffffff168152602001908152602001600020600082825403925050819055506001600360008473ffffffffffffffffffffffffffffffffffffffff1673ffffffffffffffffffffffffffffffffffffffff16815260200190815260200160002060008282540192505081905550816002600083815260200190815260200160002060006101000a81548173ffffffffffffffffffffffffffffffffffffffff021916908373ffffffffffffffffffffffffffffffffffffffff160217905550808273ffffffffffffffffffffffffffffffffffffffff168473ffffffffffffffffffffffffffffffffffffffff167fddf252ad1be2c89b69c2b068fc378daa952ba7f163c4a11628f55a4df523b3ef60405160405180910390a46113b08383836001611b2f565b505050565b6113c6816113c1610f66565b611b35565b50565b6113d38282610b04565b6114a65760016006600084815260200190815260200160002060000160008373ffffffffffffffffffffffffffffffffffffffff1673ffffffffffffffffffffffffffffffffffffffff16815260200190815260200160002060006101000a81548160ff02191690831515021790555061144b610f66565b73ffffffffffffffffffffffffffffffffffffffff168173ffffffffffffffffffffffffffffffffffffffff16837f2f8788117e7eff1d82e926ec794901d17c78024a50270940304540a733656f0d60405160405180910390a45b5050565b60006114b5826109c7565b90506114c5816000846001611b29565b6114ce826109c7565b90506004600083815260200190815260200160002060006101000a81549073ffffffffffffffffffffffffffffffffffffffff02191690556001600360008373ffffffffffffffffffffffffffffffffffffffff1673ffffffffffffffffffffffffffffffffffffffff168152602001908152602001600020600082825403925050819055506002600083815260200190815260200160002060006101000a81549073ffffffffffffffffffffffffffffffffffffffff021916905581600073ffffffffffffffffffffffffffffffffffffffff168273ffffffffffffffffffffffffffffffffffffffff167fddf252ad1be2c89b69c2b068fc378daa952ba7f163c4a11628f55a4df523b3ef60405160405180910390a46115f4816000846001611b2f565b5050565b6116028282610b04565b156116d65760006006600084815260200190815260200160002060000160008373ffffffffffffffffffffffffffffffffffffffff1673ffffffffffffffffffffffffffffffffffffffff16815260200190815260200160002060006101000a81548160ff02191690831515021790555061167b610f66565b73ffffffffffffffffffffffffffffffffffffffff168173ffffffffffffffffffffffffffffffffffffffff16837ff6391f5c32d9c69d2a47ea670b442974b53935d1edc7fd64eb21e047a839171b60405160405180910390a45b5050565b60006002600083815260200190815260200160002060009054906101000a900473ffffffffffffffffffffffffffffffffffffffff169050919050565b8173ffffffffffffffffffffffffffffffffffffffff168373ffffffffffffffffffffffffffffffffffffffff1603611785576040517f08c379a000000000000000000000000000000000000000000000000000000000815260040161177c90613091565b60405180910390fd5b80600560008573ffffffffffffffffffffffffffffffffffffffff1673ffffffffffffffffffffffffffffffffffffffff16815260200190815260200160002060008473ffffffffffffffffffffffffffffffffffffffff1673ffffffffffffffffffffffffffffffffffffffff16815260200190815260200160002060006101000a81548160ff0219169083151502179055508173ffffffffffffffffffffffffffffffffffffffff168373ffffffffffffffffffffffffffffffffffffffff167f17307eab39ab6107e8899845ad3d59bd9653f200f220920489ca2b5937696c318360405161187691906124b6565b60405180910390a3505050565b61188e8484846110bc565b61189a84848484611bba565b6118d9576040517f08c379a00000000000000000000000000000000000000000000000000000000081526004016118d090613123565b60405180910390fd5b50505050565b606060405180602001604052806000815250905090565b60606000600161190584611d41565b01905060008167ffffffffffffffff8111156119245761192361289b565b5b6040519080825280601f01601f1916602001820160405280156119565781602001600182028036833780820191505090505b509050600082602001820190505b6001156119b9578080600190039150507f3031323334353637383961626364656600000000000000000000000000000000600a86061a8153600a85816119ad576119ac613143565b5b04945060008503611964575b819350505050919050565b6001816000016000828254019250508190555050565b600081600001549050919050565b611a02828260405180602001604052806000815250611e94565b5050565b60007f80ac58cd000000000000000000000000000000000000000000000000000000007bffffffffffffffffffffffffffffffffffffffffffffffffffffffff1916827bffffffffffffffffffffffffffffffffffffffffffffffffffffffff19161480611ad157507f5b5e139f000000000000000000000000000000000000000000000000000000007bffffffffffffffffffffffffffffffffffffffffffffffffffffffff1916827bffffffffffffffffffffffffffffffffffffffffffffffffffffffff1916145b80611ae15750611ae082611eef565b5b9050919050565b60008073ffffffffffffffffffffffffffffffffffffffff16611b0a836116da565b73ffffffffffffffffffffffffffffffffffffffff1614159050919050565b50505050565b50505050565b611b3f8282610b04565b611bb657611b4c81611f59565b611b5a8360001c6020611f86565b604051602001611b6b92919061320a565b6040516020818303038152906040526040517f08c379a0000000000000000000000000000000000000000000000000000000008152600401611bad9190612561565b60405180910390fd5b5050565b6000611bdb8473ffffffffffffffffffffffffffffffffffffffff166121c2565b15611d34578373ffffffffffffffffffffffffffffffffffffffff1663150b7a02611c04610f66565b8786866040518563ffffffff1660e01b8152600401611c269493929190613299565b6020604051808303816000875af1925050508015611c6257506040513d601f19601f82011682018060405250810190611c5f91906132fa565b60015b611ce4573d8060008114611c92576040519150601f19603f3d011682016040523d82523d6000602084013e611c97565b606091505b506000815103611cdc576040517f08c379a0000000000000000000000000000000000000000000000000000000008152600401611cd390613123565b60405180910390fd5b805181602001fd5b63150b7a0260e01b7bffffffffffffffffffffffffffffffffffffffffffffffffffffffff1916817bffffffffffffffffffffffffffffffffffffffffffffffffffffffff191614915050611d39565b600190505b949350505050565b600080600090507a184f03e93ff9f4daa797ed6e38ed64bf6a1f0100000000000000008310611d9f577a184f03e93ff9f4daa797ed6e38ed64bf6a1f0100000000000000008381611d9557611d94613143565b5b0492506040810190505b6d04ee2d6d415b85acef81000000008310611ddc576d04ee2d6d415b85acef81000000008381611dd257611dd1613143565b5b0492506020810190505b662386f26fc100008310611e0b57662386f26fc100008381611e0157611e00613143565b5b0492506010810190505b6305f5e1008310611e34576305f5e1008381611e2a57611e29613143565b5b0492506008810190505b6127108310611e59576127108381611e4f57611e4e613143565b5b0492506004810190505b60648310611e7c5760648381611e7257611e71613143565b5b0492506002810190505b600a8310611e8b576001810190505b80915050919050565b611e9e83836121e5565b611eab6000848484611bba565b611eea576040517f08c379a0000000000000000000000000000000000000000000000000000000008152600401611ee190613123565b60405180910390fd5b505050565b60007f01ffc9a7000000000000000000000000000000000000000000000000000000007bffffffffffffffffffffffffffffffffffffffffffffffffffffffff1916827bffffffffffffffffffffffffffffffffffffffffffffffffffffffff1916149050919050565b6060611f7f8273ffffffffffffffffffffffffffffffffffffffff16601460ff16611f86565b9050919050565b606060006002836002611f999190613356565b611fa39190613398565b67ffffffffffffffff811115611fbc57611fbb61289b565b5b6040519080825280601f01601f191660200182016040528015611fee5781602001600182028036833780820191505090505b5090507f300000000000000000000000000000000000000000000000000000000000000081600081518110612026576120256133cc565b5b60200101907effffffffffffffffffffffffffffffffffffffffffffffffffffffffffffff1916908160001a9053507f78000000000000000000000000000000000000000000000000000000000000008160018151811061208a576120896133cc565b5b60200101907effffffffffffffffffffffffffffffffffffffffffffffffffffffffffffff1916908160001a905350600060018460026120ca9190613356565b6120d49190613398565b90505b6001811115612174577f3031323334353637383961626364656600000000000000000000000000000000600f861660108110612116576121156133cc565b5b1a60f81b82828151811061212d5761212c6133cc565b5b60200101907effffffffffffffffffffffffffffffffffffffffffffffffffffffffffffff1916908160001a905350600485901c94508061216d906133fb565b90506120d7565b50600084146121b8576040517f08c379a00000000000000000000000000000000000000000000000000000000081526004016121af90613470565b60405180910390fd5b8091505092915050565b6000808273ffffffffffffffffffffffffffffffffffffffff163b119050919050565b600073ffffffffffffffffffffffffffffffffffffffff168273ffffffffffffffffffffffffffffffffffffffff1603612254576040517f08c379a000000000000000000000000000000000000000000000000000000000815260040161224b906134dc565b60405180910390fd5b61225d81611ae8565b1561229d576040517f08c379a000000000000000000000000000000000000000000000000000000000815260040161229490613548565b60405180910390fd5b6122ab600083836001611b29565b6122b481611ae8565b156122f4576040517f08c379a00000000000000000000000000000000000000000000000000000000081526004016122eb90613548565b60405180910390fd5b6001600360008473ffffffffffffffffffffffffffffffffffffffff1673ffffffffffffffffffffffffffffffffffffffff16815260200190815260200160002060008282540192505081905550816002600083815260200190815260200160002060006101000a81548173ffffffffffffffffffffffffffffffffffffffff021916908373ffffffffffffffffffffffffffffffffffffffff160217905550808273ffffffffffffffffffffffffffffffffffffffff16600073ffffffffffffffffffffffffffffffffffffffff167fddf252ad1be2c89b69c2b068fc378daa952ba7f163c4a11628f55a4df523b3ef60405160405180910390a46123fe600083836001611b2f565b5050565b6000604051905090565b600080fd5b600080fd5b60007fffffffff0000000000000000000000000000000000000000000000000000000082169050919050565b61244b81612416565b811461245657600080fd5b50565b60008135905061246881612442565b92915050565b6000602082840312156124845761248361240c565b5b600061249284828501612459565b91505092915050565b60008115159050919050565b6124b08161249b565b82525050565b60006020820190506124cb60008301846124a7565b92915050565b600081519050919050565b600082825260208201905092915050565b60005b8381101561250b5780820151818401526020810190506124f0565b60008484015250505050565b6000601f19601f8301169050919050565b6000612533826124d1565b61253d81856124dc565b935061254d8185602086016124ed565b61255681612517565b840191505092915050565b6000602082019050818103600083015261257b8184612528565b905092915050565b6000819050919050565b61259681612583565b81146125a157600080fd5b50565b6000813590506125b38161258d565b92915050565b6000602082840312156125cf576125ce61240c565b5b60006125dd848285016125a4565b91505092915050565b600073ffffffffffffffffffffffffffffffffffffffff82169050919050565b6000612611826125e6565b9050919050565b61262181612606565b82525050565b600060208201905061263c6000830184612618565b92915050565b61264b81612606565b811461265657600080fd5b50565b60008135905061266881612642565b92915050565b600080604083850312156126855761268461240c565b5b600061269385828601612659565b92505060206126a4858286016125a4565b9150509250929050565b6000602082840312156126c4576126c361240c565b5b60006126d284828501612659565b91505092915050565b6126e481612583565b82525050565b60006020820190506126ff60008301846126db565b92915050565b60008060006060848603121561271e5761271d61240c565b5b600061272c86828701612659565b935050602061273d86828701612659565b925050604061274e868287016125a4565b9150509250925092565b6000819050919050565b61276b81612758565b811461277657600080fd5b50565b60008135905061278881612762565b92915050565b6000602082840312156127a4576127a361240c565b5b60006127b284828501612779565b91505092915050565b6127c481612758565b82525050565b60006020820190506127df60008301846127bb565b92915050565b600080604083850312156127fc576127fb61240c565b5b600061280a85828601612779565b925050602061281b85828601612659565b9150509250929050565b61282e8161249b565b811461283957600080fd5b50565b60008135905061284b81612825565b92915050565b600080604083850312156128685761286761240c565b5b600061287685828601612659565b92505060206128878582860161283c565b9150509250929050565b600080fd5b600080fd5b7f4e487b7100000000000000000000000000000000000000000000000000000000600052604160045260246000fd5b6128d382612517565b810181811067ffffffffffffffff821117156128f2576128f161289b565b5b80604052505050565b6000612905612402565b905061291182826128ca565b919050565b600067ffffffffffffffff8211156129315761293061289b565b5b61293a82612517565b9050602081019050919050565b82818337600083830152505050565b600061296961296484612916565b6128fb565b90508281526020810184848401111561298557612984612896565b5b612990848285612947565b509392505050565b600082601f8301126129ad576129ac612891565b5b81356129bd848260208601612956565b91505092915050565b600080600080608085870312156129e0576129df61240c565b5b60006129ee87828801612659565b94505060206129ff87828801612659565b9350506040612a10878288016125a4565b925050606085013567ffffffffffffffff811115612a3157612a30612411565b5b612a3d87828801612998565b91505092959194509250565b60008060408385031215612a6057612a5f61240c565b5b6000612a6e85828601612659565b9250506020612a7f85828601612659565b9150509250929050565b7f4e487b7100000000000000000000000000000000000000000000000000000000600052602260045260246000fd5b60006002820490506001821680612ad057607f821691505b602082108103612ae357612ae2612a89565b5b50919050565b7f4552433732313a20617070726f76616c20746f2063757272656e74206f776e6560008201527f7200000000000000000000000000000000000000000000000000000000000000602082015250565b6000612b456021836124dc565b9150612b5082612ae9565b604082019050919050565b60006020820190508181036000830152612b7481612b38565b9050919050565b7f4552433732313a20617070726f76652063616c6c6572206973206e6f7420746f60008201527f6b656e206f776e6572206f7220617070726f76656420666f7220616c6c000000602082015250565b6000612bd7603d836124dc565b9150612be282612b7b565b604082019050919050565b60006020820190508181036000830152612c0681612bca565b9050919050565b7f4552433732313a2063616c6c6572206973206e6f7420746f6b656e206f776e6560008201527f72206f7220617070726f76656400000000000000000000000000000000000000602082015250565b6000612c69602d836124dc565b9150612c7482612c0d565b604082019050919050565b60006020820190508181036000830152612c9881612c5c565b9050919050565b7f4e465420646f6573206e6f742062656c6f6e6720746f2074686973207573657260008201527f206f72206973206e6f7420747261636b65640000000000000000000000000000602082015250565b6000612cfb6032836124dc565b9150612d0682612c9f565b604082019050919050565b60006020820190508181036000830152612d2a81612cee565b9050919050565b7f416363657373436f6e74726f6c3a2063616e206f6e6c792072656e6f756e636560008201527f20726f6c657320666f722073656c660000000000000000000000000000000000602082015250565b6000612d8d602f836124dc565b9150612d9882612d31565b604082019050919050565b60006020820190508181036000830152612dbc81612d80565b9050919050565b7f4552433732313a20696e76616c696420746f6b656e2049440000000000000000600082015250565b6000612df96018836124dc565b9150612e0482612dc3565b602082019050919050565b60006020820190508181036000830152612e2881612dec565b9050919050565b7f4552433732313a2061646472657373207a65726f206973206e6f74206120766160008201527f6c6964206f776e65720000000000000000000000000000000000000000000000602082015250565b6000612e8b6029836124dc565b9150612e9682612e2f565b604082019050919050565b60006020820190508181036000830152612eba81612e7e565b9050919050565b600081905092915050565b6000612ed7826124d1565b612ee18185612ec1565b9350612ef18185602086016124ed565b80840191505092915050565b6000612f098285612ecc565b9150612f158284612ecc565b91508190509392505050565b7f4552433732313a207472616e736665722066726f6d20696e636f72726563742060008201527f6f776e6572000000000000000000000000000000000000000000000000000000602082015250565b6000612f7d6025836124dc565b9150612f8882612f21565b604082019050919050565b60006020820190508181036000830152612fac81612f70565b9050919050565b7f4552433732313a207472616e7366657220746f20746865207a65726f2061646460008201527f7265737300000000000000000000000000000000000000000000000000000000602082015250565b600061300f6024836124dc565b915061301a82612fb3565b604082019050919050565b6000602082019050818103600083015261303e81613002565b9050919050565b7f4552433732313a20617070726f766520746f2063616c6c657200000000000000600082015250565b600061307b6019836124dc565b915061308682613045565b602082019050919050565b600060208201905081810360008301526130aa8161306e565b9050919050565b7f4552433732313a207472616e7366657220746f206e6f6e20455243373231526560008201527f63656976657220696d706c656d656e7465720000000000000000000000000000602082015250565b600061310d6032836124dc565b9150613118826130b1565b604082019050919050565b6000602082019050818103600083015261313c81613100565b9050919050565b7f4e487b7100000000000000000000000000000000000000000000000000000000600052601260045260246000fd5b7f416363657373436f6e74726f6c3a206163636f756e7420000000000000000000600082015250565b60006131a8601783612ec1565b91506131b382613172565b601782019050919050565b7f206973206d697373696e6720726f6c6520000000000000000000000000000000600082015250565b60006131f4601183612ec1565b91506131ff826131be565b601182019050919050565b60006132158261319b565b91506132218285612ecc565b915061322c826131e7565b91506132388284612ecc565b91508190509392505050565b600081519050919050565b600082825260208201905092915050565b600061326b82613244565b613275818561324f565b93506132858185602086016124ed565b61328e81612517565b840191505092915050565b60006080820190506132ae6000830187612618565b6132bb6020830186612618565b6132c860408301856126db565b81810360608301526132da8184613260565b905095945050505050565b6000815190506132f481612442565b92915050565b6000602082840312156133105761330f61240c565b5b600061331e848285016132e5565b91505092915050565b7f4e487b7100000000000000000000000000000000000000000000000000000000600052601160045260246000fd5b600061336182612583565b915061336c83612583565b925082820261337a81612583565b9150828204841483151761339157613390613327565b5b5092915050565b60006133a382612583565b91506133ae83612583565b92508282019050808211156133c6576133c5613327565b5b92915050565b7f4e487b7100000000000000000000000000000000000000000000000000000000600052603260045260246000fd5b600061340682612583565b91506000820361341957613418613327565b5b600182039050919050565b7f537472696e67733a20686578206c656e67746820696e73756666696369656e74600082015250565b600061345a6020836124dc565b915061346582613424565b602082019050919050565b600060208201905081810360008301526134898161344d565b9050919050565b7f4552433732313a206d696e7420746f20746865207a65726f2061646472657373600082015250565b60006134c66020836124dc565b91506134d182613490565b602082019050919050565b600060208201905081810360008301526134f5816134b9565b9050919050565b7f4552433732313a20746f6b656e20616c7265616479206d696e74656400000000600082015250565b6000613532601c836124dc565b915061353d826134fc565b602082019050919050565b6000602082019050818103600083015261356181613525565b905091905056fea2646970667358221220ade4ee206b358fc518679339aed0d2da6f4e83c08475fffe0c6ff0163280292f64736f6c63430008140033",
  "linkReferences": {},
  "deployedLinkReferences": {}
}