{
  "_format": "hh-sol-artifact-1",
  "contractName": "YieldFlow",
  "sourceName": "contracts/YieldFlow.sol",
  "abi": [
    {
      "inputs": [
        {
          "internalType": "address",
          "name": "_usdcAddress",
          "type": "address"
        },
        {
          "internalType": "uint256",
          "name": "_minReputation",
          "type": "uint256"
        },
        {
          "internalType": "address",
          "name": "_aavePoolAddress",
          "type": "address"
        }
      ],
      "stateMutability": "nonpayable",
      "type": "constructor"
    },
    {
      "anonymous": false,
      "inputs": [
        {
          "indexed": true,
          "internalType": "address",
          "name": "user",
          "type": "address"
        },
        {
          "indexed": true,
          "internalType": "address",
          "name": "token",
          "type": "address"
        },
        {
          "indexed": false,
          "internalType": "uint256",
          "name": "amount",
          "type": "uint256"
        }
      ],
      "name": "Deposited",
      "type": "event"
    },
    {
      "anonymous": false,
      "inputs": [
        {
          "indexed": true,
          "internalType": "address",
          "name": "user",
          "type": "address"
        },
        {
          "indexed": true,
          "internalType": "address",
          "name": "token",
          "type": "address"
        },
        {
          "indexed": false,
          "internalType": "uint256",
          "name": "amount",
          "type": "uint256"
        }
      ],
      "name": "FundsWithdrawn",
      "type": "event"
    },
    {
      "anonymous": false,
      "inputs": [
        {
          "indexed": true,
          "internalType": "address",
          "name": "previousOwner",
          "type": "address"
        },
        {
          "indexed": true,
          "internalType": "address",
          "name": "newOwner",
          "type": "address"
        }
      ],
      "name": "OwnershipTransferred",
      "type": "event"
    },
    {
      "anonymous": false,
      "inputs": [
        {
          "indexed": true,
          "internalType": "address",
          "name": "user",
          "type": "address"
        },
        {
          "indexed": false,
          "internalType": "uint256",
          "name": "newScore",
          "type": "uint256"
        }
      ],
      "name": "ReputationScoreUpdated",
      "type": "event"
    },
    {
      "anonymous": false,
      "inputs": [
        {
          "indexed": true,
          "internalType": "bytes32",
          "name": "role",
          "type": "bytes32"
        },
        {
          "indexed": true,
          "internalType": "bytes32",
          "name": "previousAdminRole",
          "type": "bytes32"
        },
        {
          "indexed": true,
          "internalType": "bytes32",
          "name": "newAdminRole",
          "type": "bytes32"
        }
      ],
      "name": "RoleAdminChanged",
      "type": "event"
    },
    {
      "anonymous": false,
      "inputs": [
        {
          "indexed": true,
          "internalType": "bytes32",
          "name": "role",
          "type": "bytes32"
        },
        {
          "indexed": true,
          "internalType": "address",
          "name": "account",
          "type": "address"
        },
        {
          "indexed": true,
          "internalType": "address",
          "name": "sender",
          "type": "address"
        }
      ],
      "name": "RoleGranted",
      "type": "event"
    },
    {
      "anonymous": false,
      "inputs": [
        {
          "indexed": true,
          "internalType": "bytes32",
          "name": "role",
          "type": "bytes32"
        },
        {
          "indexed": true,
          "internalType": "address",
          "name": "account",
          "type": "address"
        },
        {
          "indexed": true,
          "internalType": "address",
          "name": "sender",
          "type": "address"
        }
      ],
      "name": "RoleRevoked",
      "type": "event"
    },
    {
      "anonymous": false,
      "inputs": [
        {
          "indexed": true,
          "internalType": "address",
          "name": "user",
          "type": "address"
        },
        {
          "indexed": true,
          "internalType": "address",
          "name": "token",
          "type": "address"
        },
        {
          "indexed": false,
          "internalType": "uint256",
          "name": "amount",
          "type": "uint256"
        },
        {
          "indexed": false,
          "internalType": "string",
          "name": "purpose",
          "type": "string"
        }
      ],
      "name": "Spent",
      "type": "event"
    },
    {
      "anonymous": false,
      "inputs": [
        {
          "indexed": true,
          "internalType": "address",
          "name": "user",
          "type": "address"
        },
        {
          "indexed": false,
          "internalType": "uint256",
          "name": "amount",
          "type": "uint256"
        }
      ],
      "name": "YieldClaimed",
      "type": "event"
    },
    {
      "inputs": [],
      "name": "DEFAULT_ADMIN_ROLE",
      "outputs": [
        {
          "internalType": "bytes32",
          "name": "",
          "type": "bytes32"
        }
      ],
      "stateMutability": "view",
      "type": "function"
    },
    {
      "inputs": [],
      "name": "ETH_ADDRESS",
      "outputs": [
        {
          "internalType": "address",
          "name": "",
          "type": "address"
        }
      ],
      "stateMutability": "view",
      "type": "function"
    },
    {
      "inputs": [],
      "name": "aUSDCAddress",
      "outputs": [
        {
          "internalType": "address",
          "name": "",
          "type": "address"
        }
      ],
      "stateMutability": "view",
      "type": "function"
    },
    {
      "inputs": [],
      "name": "aavePool",
      "outputs": [
        {
          "internalType": "contract IAaveV3Pool",
          "name": "",
          "type": "address"
        }
      ],
      "stateMutability": "view",
      "type": "function"
    },
    {
      "inputs": [],
      "name": "aavePoolAddress",
      "outputs": [
        {
          "internalType": "address",
          "name": "",
          "type": "address"
        }
      ],
      "stateMutability": "view",
      "type": "function"
    },
    {
      "inputs": [],
      "name": "depositETH",
      "outputs": [],
      "stateMutability": "payable",
      "type": "function"
    },
    {
      "inputs": [
        {
          "internalType": "uint256",
          "name": "_amount",
          "type": "uint256"
        }
      ],
      "name": "depositUSDC",
      "outputs": [],
      "stateMutability": "nonpayable",
      "type": "function"
    },
    {
      "inputs": [
        {
          "internalType": "address",
          "name": "",
          "type": "address"
        }
      ],
      "name": "depositedETH",
      "outputs": [
        {
          "internalType": "uint256",
          "name": "",
          "type": "uint256"
        }
      ],
      "stateMutability": "view",
      "type": "function"
    },
    {
      "inputs": [
        {
          "internalType": "address",
          "name": "",
          "type": "address"
        }
      ],
      "name": "depositedUSDC",
      "outputs": [
        {
          "internalType": "uint256",
          "name": "",
          "type": "uint256"
        }
      ],
      "stateMutability": "view",
      "type": "function"
    },
    {
      "inputs": [],
      "name": "getAavePoolAddress",
      "outputs": [
        {
          "internalType": "address",
          "name": "",
          "type": "address"
        }
      ],
      "stateMutability": "view",
      "type": "function"
    },
    {
      "inputs": [
        {
          "internalType": "address",
          "name": "_user",
          "type": "address"
        }
      ],
      "name": "getDepositedETH",
      "outputs": [
        {
          "internalType": "uint256",
          "name": "",
          "type": "uint256"
        }
      ],
      "stateMutability": "view",
      "type": "function"
    },
    {
      "inputs": [
        {
          "internalType": "address",
          "name": "_user",
          "type": "address"
        }
      ],
      "name": "getDepositedUSDC",
      "outputs": [
        {
          "internalType": "uint256",
          "name": "",
          "type": "uint256"
        }
      ],
      "stateMutability": "view",
      "type": "function"
    },
    {
      "inputs": [
        {
          "internalType": "address",
          "name": "_user",
          "type": "address"
        }
      ],
      "name": "getReputationScore",
      "outputs": [
        {
          "internalType": "uint256",
          "name": "",
          "type": "uint256"
        }
      ],
      "stateMutability": "view",
      "type": "function"
    },
    {
      "inputs": [
        {
          "internalType": "bytes32",
          "name": "role",
          "type": "bytes32"
        }
      ],
      "name": "getRoleAdmin",
      "outputs": [
        {
          "internalType": "bytes32",
          "name": "",
          "type": "bytes32"
        }
      ],
      "stateMutability": "view",
      "type": "function"
    },
    {
      "inputs": [],
      "name": "getTotalDepositedUSDC",
      "outputs": [
        {
          "internalType": "uint256",
          "name": "total",
          "type": "uint256"
        }
      ],
      "stateMutability": "view",
      "type": "function"
    },
    {
      "inputs": [],
      "name": "getTotalYieldEarned",
      "outputs": [
        {
          "internalType": "uint256",
          "name": "",
          "type": "uint256"
        }
      ],
      "stateMutability": "view",
      "type": "function"
    },
    {
      "inputs": [
        {
          "internalType": "bytes32",
          "name": "role",
          "type": "bytes32"
        },
        {
          "internalType": "address",
          "name": "account",
          "type": "address"
        }
      ],
      "name": "grantRole",
      "outputs": [],
      "stateMutability": "nonpayable",
      "type": "function"
    },
    {
      "inputs": [
        {
          "internalType": "bytes32",
          "name": "role",
          "type": "bytes32"
        },
        {
          "internalType": "address",
          "name": "account",
          "type": "address"
        }
      ],
      "name": "hasRole",
      "outputs": [
        {
          "internalType": "bool",
          "name": "",
          "type": "bool"
        }
      ],
      "stateMutability": "view",
      "type": "function"
    },
    {
      "inputs": [
        {
          "internalType": "address",
          "name": "",
          "type": "address"
        },
        {
          "internalType": "uint256",
          "name": "",
          "type": "uint256"
        }
      ],
      "name": "milestoneAwarded",
      "outputs": [
        {
          "internalType": "bool",
          "name": "",
          "type": "bool"
        }
      ],
      "stateMutability": "view",
      "type": "function"
    },
    {
      "inputs": [],
      "name": "minReputationForYieldAccess",
      "outputs": [
        {
          "internalType": "uint256",
          "name": "",
          "type": "uint256"
        }
      ],
      "stateMutability": "view",
      "type": "function"
    },
    {
      "inputs": [],
      "name": "owner",
      "outputs": [
        {
          "internalType": "address",
          "name": "",
          "type": "address"
        }
      ],
      "stateMutability": "view",
      "type": "function"
    },
    {
      "inputs": [],
      "name": "renounceOwnership",
      "outputs": [],
      "stateMutability": "nonpayable",
      "type": "function"
    },
    {
      "inputs": [
        {
          "internalType": "bytes32",
          "name": "role",
          "type": "bytes32"
        },
        {
          "internalType": "address",
          "name": "account",
          "type": "address"
        }
      ],
      "name": "renounceRole",
      "outputs": [],
      "stateMutability": "nonpayable",
      "type": "function"
    },
    {
      "inputs": [
        {
          "internalType": "uint256",
          "name": "",
          "type": "uint256"
        }
      ],
      "name": "reputationMilestones",
      "outputs": [
        {
          "internalType": "uint256",
          "name": "",
          "type": "uint256"
        }
      ],
      "stateMutability": "view",
      "type": "function"
    },
    {
      "inputs": [],
      "name": "reputationNFT",
      "outputs": [
        {
          "internalType": "contract ReputationNFT",
          "name": "",
          "type": "address"
        }
      ],
      "stateMutability": "view",
      "type": "function"
    },
    {
      "inputs": [
        {
          "internalType": "address",
          "name": "",
          "type": "address"
        }
      ],
      "name": "reputationScores",
      "outputs": [
        {
          "internalType": "uint256",
          "name": "",
          "type": "uint256"
        }
      ],
      "stateMutability": "view",
      "type": "function"
    },
    {
      "inputs": [
        {
          "internalType": "bytes32",
          "name": "role",
          "type": "bytes32"
        },
        {
          "internalType": "address",
          "name": "account",
          "type": "address"
        }
      ],
      "name": "revokeRole",
      "outputs": [],
      "stateMutability": "nonpayable",
      "type": "function"
    },
    {
      "inputs": [
        {
          "internalType": "address",
          "name": "_aUSDCAddress",
          "type": "address"
        }
      ],
      "name": "setAUSDCAddress",
      "outputs": [],
      "stateMutability": "nonpayable",
      "type": "function"
    },
    {
      "inputs": [
        {
          "internalType": "address",
          "name": "_aavePoolAddress",
          "type": "address"
        }
      ],
      "name": "setAavePoolAddress",
      "outputs": [],
      "stateMutability": "nonpayable",
      "type": "function"
    },
    {
      "inputs": [
        {
          "internalType": "uint256",
          "name": "_newMinReputation",
          "type": "uint256"
        }
      ],
      "name": "setMinReputationForYieldAccess",
      "outputs": [],
      "stateMutability": "nonpayable",
      "type": "function"
    },
    {
      "inputs": [
        {
          "internalType": "address",
          "name": "_nft",
          "type": "address"
        }
      ],
      "name": "setReputationNFTContract",
      "outputs": [],
      "stateMutability": "nonpayable",
      "type": "function"
    },
    {
      "inputs": [
        {
          "internalType": "uint256",
          "name": "_amount",
          "type": "uint256"
        },
        {
          "internalType": "string",
          "name": "_purpose",
          "type": "string"
        }
      ],
      "name": "spendETH",
      "outputs": [],
      "stateMutability": "nonpayable",
      "type": "function"
    },
    {
      "inputs": [
        {
          "internalType": "uint256",
          "name": "_amount",
          "type": "uint256"
        },
        {
          "internalType": "string",
          "name": "_purpose",
          "type": "string"
        }
      ],
      "name": "spendUSDC",
      "outputs": [],
      "stateMutability": "nonpayable",
      "type": "function"
    },
    {
      "inputs": [
        {
          "internalType": "bytes4",
          "name": "interfaceId",
          "type": "bytes4"
        }
      ],
      "name": "supportsInterface",
      "outputs": [
        {
          "internalType": "bool",
          "name": "",
          "type": "bool"
        }
      ],
      "stateMutability": "view",
      "type": "function"
    },
    {
      "inputs": [
        {
          "internalType": "address",
          "name": "newOwner",
          "type": "address"
        }
      ],
      "name": "transferOwnership",
      "outputs": [],
      "stateMutability": "nonpayable",
      "type": "function"
    },
    {
      "inputs": [
        {
          "internalType": "address",
          "name": "_user",
          "type": "address"
        },
        {
          "internalType": "uint256",
          "name": "_newScore",
          "type": "uint256"
        }
      ],
      "name": "updateReputationScore",
      "outputs": [],
      "stateMutability": "nonpayable",
      "type": "function"
    },
    {
      "inputs": [],
      "name": "usdcToken",
      "outputs": [
        {
          "internalType": "contract IERC20",
          "name": "",
          "type": "address"
        }
      ],
      "stateMutability": "view",
      "type": "function"
    },
    {
      "inputs": [
        {
          "internalType": "uint256",
          "name": "_amount",
          "type": "uint256"
        }
      ],
      "name": "withdrawETH",
      "outputs": [],
      "stateMutability": "nonpayable",
      "type": "function"
    },
    {
      "inputs": [
        {
          "internalType": "uint256",
          "name": "_amount",
          "type": "uint256"
        }
      ],
      "name": "withdrawUSDC",
      "outputs": [],
      "stateMutability": "nonpayable",
      "type": "function"
    }
  ],
  "bytecode": "0x60a060405273eeeeeeeeeeeeeeeeeeeeeeeeeeeeeeeeeeeeeeee73ffffffffffffffffffffffffffffffffffffffff1660809073ffffffffffffffffffffffffffffffffffffffff168152506040518060600160405280600a60ff168152602001603260ff168152602001606460ff1681525060059060036200008492919062000362565b503480156200009257600080fd5b50604051620048ec380380620048ec8339818101604052810190620000b891906200047d565b620000d8620000cc6200029660201b60201c565b6200029e60201b60201c565b60018081905550600073ffffffffffffffffffffffffffffffffffffffff168373ffffffffffffffffffffffffffffffffffffffff160362000151576040517f08c379a000000000000000000000000000000000000000000000000000000000815260040162000148906200053a565b60405180910390fd5b600073ffffffffffffffffffffffffffffffffffffffff168173ffffffffffffffffffffffffffffffffffffffff1603620001c3576040517f08c379a0000000000000000000000000000000000000000000000000000000008152600401620001ba90620005ac565b60405180910390fd5b82600360006101000a81548173ffffffffffffffffffffffffffffffffffffffff021916908373ffffffffffffffffffffffffffffffffffffffff16021790555081600a8190555080600c60006101000a81548173ffffffffffffffffffffffffffffffffffffffff021916908373ffffffffffffffffffffffffffffffffffffffff16021790555080600b60006101000a81548173ffffffffffffffffffffffffffffffffffffffff021916908373ffffffffffffffffffffffffffffffffffffffff160217905550505050620005ce565b600033905090565b60008060009054906101000a900473ffffffffffffffffffffffffffffffffffffffff169050816000806101000a81548173ffffffffffffffffffffffffffffffffffffffff021916908373ffffffffffffffffffffffffffffffffffffffff1602179055508173ffffffffffffffffffffffffffffffffffffffff168173ffffffffffffffffffffffffffffffffffffffff167f8be0079c531659141344cd1fd0a4f28419497f9722a3daafe3b4186f6b6457e060405160405180910390a35050565b828054828255906000526020600020908101928215620003a6579160200282015b82811115620003a5578251829060ff1690559160200191906001019062000383565b5b509050620003b59190620003b9565b5090565b5b80821115620003d4576000816000905550600101620003ba565b5090565b600080fd5b600073ffffffffffffffffffffffffffffffffffffffff82169050919050565b60006200040a82620003dd565b9050919050565b6200041c81620003fd565b81146200042857600080fd5b50565b6000815190506200043c8162000411565b92915050565b6000819050919050565b620004578162000442565b81146200046357600080fd5b50565b60008151905062000477816200044c565b92915050565b600080600060608486031215620004995762000498620003d8565b5b6000620004a9868287016200042b565b9350506020620004bc8682870162000466565b9250506040620004cf868287016200042b565b9150509250925092565b600082825260208201905092915050565b7f5553444320616464726573732063616e6e6f74206265207a65726f0000000000600082015250565b600062000522601b83620004d9565b91506200052f82620004ea565b602082019050919050565b60006020820190508181036000830152620005558162000513565b9050919050565b7f4161766520506f6f6c20616464726573732063616e6e6f74206265207a65726f600082015250565b600062000594602083620004d9565b9150620005a1826200055c565b602082019050919050565b60006020820190508181036000830152620005c78162000585565b9050919050565b6080516142ed620005ff60003960008181610f3a015281816111f1015281816119e80152611bf401526142ed6000f3fe6080604052600436106102305760003560e01c8063a217fddf1161012e578063f1166ef2116100ab578063f688bcfb1161006f578063f688bcfb14610840578063f7f3dd7f14610869578063fa48864914610892578063fa9b8e25146108bd578063fe0438b2146108fa57610230565b8063f1166ef21461077e578063f14210a6146107a7578063f2fde38b146107d0578063f5db8bc7146107f9578063f6326fb31461083657610230565b8063d547741f116100f2578063d547741f14610699578063db81f99b146106c2578063e7f1c3af146106eb578063edda71ed14610728578063ee567cd91461075357610230565b8063a217fddf146105a0578063a734f06e146105cb578063ab4f97e2146105f6578063accc2cc814610633578063c4adcb531461067057610230565b806336568abe116101bc5780638da5cb5b116101805780638da5cb5b146104a75780638e4f9606146104d25780638e511079146104fb57806391d1485414610538578063a03e4bc31461057557610230565b806336568abe146103d65780636112aeaf146103ff578063715018a61461042a57806375a67d5c1461044157806379a0ff6e1461047e57610230565b806320c648971161020357806320c64897146102f3578063248a9ca31461031c57806324bcc8d2146103595780632f2ff15d1461038457806332e71450146103ad57610230565b806301ffc9a7146102355780630885f2ee14610272578063101427d51461029d57806311eac855146102c8575b600080fd5b34801561024157600080fd5b5061025c60048036038101906102579190612dd4565b610937565b6040516102699190612e1c565b60405180910390f35b34801561027e57600080fd5b506102876109b1565b6040516102949190612e50565b60405180910390f35b3480156102a957600080fd5b506102b26109b7565b6040516102bf9190612e50565b60405180910390f35b3480156102d457600080fd5b506102dd610a88565b6040516102ea9190612eea565b60405180910390f35b3480156102ff57600080fd5b5061031a60048036038101906103159190612f43565b610aae565b005b34801561032857600080fd5b50610343600480360381019061033e9190612fa6565b610b69565b6040516103509190612fe2565b60405180910390f35b34801561036557600080fd5b5061036e610b89565b60405161037b919061300c565b60405180910390f35b34801561039057600080fd5b506103ab60048036038101906103a69190613027565b610baf565b005b3480156103b957600080fd5b506103d460048036038101906103cf9190612f43565b610bd0565b005b3480156103e257600080fd5b506103fd60048036038101906103f89190613027565b610ccc565b005b34801561040b57600080fd5b50610414610d4f565b604051610421919061300c565b60405180910390f35b34801561043657600080fd5b5061043f610d79565b005b34801561044d57600080fd5b5061046860048036038101906104639190612f43565b610d8d565b6040516104759190612e50565b60405180910390f35b34801561048a57600080fd5b506104a560048036038101906104a091906130f8565b610dd6565b005b3480156104b357600080fd5b506104bc610fce565b6040516104c9919061300c565b60405180910390f35b3480156104de57600080fd5b506104f960048036038101906104f49190613158565b610ff7565b005b34801561050757600080fd5b50610522600480360381019061051d9190612f43565b61110e565b60405161052f9190612e50565b60405180910390f35b34801561054457600080fd5b5061055f600480360381019061055a9190613027565b611157565b60405161056c9190612e1c565b60405180910390f35b34801561058157600080fd5b5061058a6111c2565b60405161059791906131b9565b60405180910390f35b3480156105ac57600080fd5b506105b56111e8565b6040516105c29190612fe2565b60405180910390f35b3480156105d757600080fd5b506105e06111ef565b6040516105ed919061300c565b60405180910390f35b34801561060257600080fd5b5061061d60048036038101906106189190612f43565b611213565b60405161062a9190612e50565b60405180910390f35b34801561063f57600080fd5b5061065a60048036038101906106559190613158565b61125c565b6040516106679190612e1c565b60405180910390f35b34801561067c57600080fd5b50610697600480360381019061069291906131d4565b61128b565b005b3480156106a557600080fd5b506106c060048036038101906106bb9190613027565b61129d565b005b3480156106ce57600080fd5b506106e960048036038101906106e491906131d4565b6112be565b005b3480156106f757600080fd5b50610712600480360381019061070d9190612f43565b6116a2565b60405161071f9190612e50565b60405180910390f35b34801561073457600080fd5b5061073d6116ba565b60405161074a9190612e50565b60405180910390f35b34801561075f57600080fd5b506107686116f7565b604051610775919061300c565b60405180910390f35b34801561078a57600080fd5b506107a560048036038101906107a09190612f43565b61171d565b005b3480156107b357600080fd5b506107ce60048036038101906107c991906131d4565b6117d8565b005b3480156107dc57600080fd5b506107f760048036038101906107f29190612f43565b611a77565b005b34801561080557600080fd5b50610820600480360381019061081b9190612f43565b611afa565b60405161082d9190612e50565b60405180910390f35b61083e611b12565b005b34801561084c57600080fd5b50610867600480360381019061086291906131d4565b611c81565b005b34801561087557600080fd5b50610890600480360381019061088b91906130f8565b6121fd565b005b34801561089e57600080fd5b506108a76123f7565b6040516108b49190613222565b60405180910390f35b3480156108c957600080fd5b506108e460048036038101906108df91906131d4565b61241d565b6040516108f19190612e50565b60405180910390f35b34801561090657600080fd5b50610921600480360381019061091c9190612f43565b612441565b60405161092e9190612e50565b60405180910390f35b60007f7965db0b000000000000000000000000000000000000000000000000000000007bffffffffffffffffffffffffffffffffffffffffffffffffffffffff1916827bffffffffffffffffffffffffffffffffffffffffffffffffffffffff191614806109aa57506109a982612459565b5b9050919050565b600a5481565b600080600d60009054906101000a900473ffffffffffffffffffffffffffffffffffffffff16905060008173ffffffffffffffffffffffffffffffffffffffff166370a08231306040518263ffffffff1660e01b8152600401610a1a919061300c565b602060405180830381865afa158015610a37573d6000803e3d6000fd5b505050506040513d601f19601f82011682018060405250810190610a5b9190613252565b9050600080821115610a7d578082610a7391906132ae565b9350505050610a85565b600093505050505b90565b600360009054906101000a900473ffffffffffffffffffffffffffffffffffffffff1681565b610ab66124c3565b600073ffffffffffffffffffffffffffffffffffffffff168173ffffffffffffffffffffffffffffffffffffffff1603610b25576040517f08c379a0000000000000000000000000000000000000000000000000000000008152600401610b1c9061333f565b60405180910390fd5b80600d60006101000a81548173ffffffffffffffffffffffffffffffffffffffff021916908373ffffffffffffffffffffffffffffffffffffffff16021790555050565b600060026000838152602001908152602001600020600101549050919050565b600d60009054906101000a900473ffffffffffffffffffffffffffffffffffffffff1681565b610bb882610b69565b610bc181612541565b610bcb8383612555565b505050565b610bd86124c3565b600073ffffffffffffffffffffffffffffffffffffffff168173ffffffffffffffffffffffffffffffffffffffff1603610c47576040517f08c379a0000000000000000000000000000000000000000000000000000000008152600401610c3e906133ab565b60405180910390fd5b80600c60006101000a81548173ffffffffffffffffffffffffffffffffffffffff021916908373ffffffffffffffffffffffffffffffffffffffff16021790555080600b60006101000a81548173ffffffffffffffffffffffffffffffffffffffff021916908373ffffffffffffffffffffffffffffffffffffffff16021790555050565b610cd4612636565b73ffffffffffffffffffffffffffffffffffffffff168173ffffffffffffffffffffffffffffffffffffffff1614610d41576040517f08c379a0000000000000000000000000000000000000000000000000000000008152600401610d389061343d565b60405180910390fd5b610d4b828261263e565b5050565b6000600c60009054906101000a900473ffffffffffffffffffffffffffffffffffffffff16905090565b610d816124c3565b610d8b6000612720565b565b6000600960008373ffffffffffffffffffffffffffffffffffffffff1673ffffffffffffffffffffffffffffffffffffffff168152602001908152602001600020549050919050565b610dde6127e4565b60008311610e21576040517f08c379a0000000000000000000000000000000000000000000000000000000008152600401610e18906134cf565b60405180910390fd5b82600860003373ffffffffffffffffffffffffffffffffffffffff1673ffffffffffffffffffffffffffffffffffffffff168152602001908152602001600020541015610ea3576040517f08c379a0000000000000000000000000000000000000000000000000000000008152600401610e9a9061353b565b60405180910390fd5b610ef583600860003373ffffffffffffffffffffffffffffffffffffffff1673ffffffffffffffffffffffffffffffffffffffff1681526020019081526020016000205461283390919063ffffffff16565b600860003373ffffffffffffffffffffffffffffffffffffffff1673ffffffffffffffffffffffffffffffffffffffff168152602001908152602001600020819055507f000000000000000000000000000000000000000000000000000000000000000073ffffffffffffffffffffffffffffffffffffffff163373ffffffffffffffffffffffffffffffffffffffff167f8e4c822e918d19a0c45d5e4f767dacbe7be5fae70d86b74130c9a7a7669d387f858585604051610fb9939291906135a8565b60405180910390a3610fc9612849565b505050565b60008060009054906101000a900473ffffffffffffffffffffffffffffffffffffffff16905090565b610fff6124c3565b600073ffffffffffffffffffffffffffffffffffffffff168273ffffffffffffffffffffffffffffffffffffffff160361106e576040517f08c379a000000000000000000000000000000000000000000000000000000000815260040161106590613626565b60405180910390fd5b80600960008473ffffffffffffffffffffffffffffffffffffffff1673ffffffffffffffffffffffffffffffffffffffff168152602001908152602001600020819055508173ffffffffffffffffffffffffffffffffffffffff167fe00f1b5d37e934593fb70fcb5fd4703e66f533b6f2560437ec119178a815812d826040516110f89190612e50565b60405180910390a261110a8282612852565b5050565b6000600760008373ffffffffffffffffffffffffffffffffffffffff1673ffffffffffffffffffffffffffffffffffffffff168152602001908152602001600020549050919050565b60006002600084815260200190815260200160002060000160008373ffffffffffffffffffffffffffffffffffffffff1673ffffffffffffffffffffffffffffffffffffffff16815260200190815260200160002060009054906101000a900460ff16905092915050565b600b60009054906101000a900473ffffffffffffffffffffffffffffffffffffffff1681565b6000801b81565b7f000000000000000000000000000000000000000000000000000000000000000081565b6000600860008373ffffffffffffffffffffffffffffffffffffffff1673ffffffffffffffffffffffffffffffffffffffff168152602001908152602001600020549050919050565b60066020528160005260406000206020528060005260406000206000915091509054906101000a900460ff1681565b6112936124c3565b80600a8190555050565b6112a682610b69565b6112af81612541565b6112b9838361263e565b505050565b6112c66127e4565b60008111611309576040517f08c379a0000000000000000000000000000000000000000000000000000000008152600401611300906136b8565b60405180910390fd5b80600760003373ffffffffffffffffffffffffffffffffffffffff1673ffffffffffffffffffffffffffffffffffffffff16815260200190815260200160002054101561138b576040517f08c379a00000000000000000000000000000000000000000000000000000000081526004016113829061374a565b60405180910390fd5b6113dd81600760003373ffffffffffffffffffffffffffffffffffffffff1673ffffffffffffffffffffffffffffffffffffffff1681526020019081526020016000205461283390919063ffffffff16565b600760003373ffffffffffffffffffffffffffffffffffffffff1673ffffffffffffffffffffffffffffffffffffffff168152602001908152602001600020819055506000600b60009054906101000a900473ffffffffffffffffffffffffffffffffffffffff1673ffffffffffffffffffffffffffffffffffffffff166369328dec600360009054906101000a900473ffffffffffffffffffffffffffffffffffffffff1684306040518463ffffffff1660e01b81526004016114a39392919061376a565b6020604051808303816000875af11580156114c2573d6000803e3d6000fd5b505050506040513d601f19601f820116820180604052508101906114e69190613252565b905081811461152a576040517f08c379a000000000000000000000000000000000000000000000000000000000815260040161152190613813565b60405180910390fd5b6000600360009054906101000a900473ffffffffffffffffffffffffffffffffffffffff1673ffffffffffffffffffffffffffffffffffffffff1663a9059cbb33856040518363ffffffff1660e01b8152600401611589929190613833565b6020604051808303816000875af11580156115a8573d6000803e3d6000fd5b505050506040513d601f19601f820116820180604052508101906115cc9190613888565b90508061160e576040517f08c379a000000000000000000000000000000000000000000000000000000000815260040161160590613901565b60405180910390fd5b600360009054906101000a900473ffffffffffffffffffffffffffffffffffffffff1673ffffffffffffffffffffffffffffffffffffffff163373ffffffffffffffffffffffffffffffffffffffff167fa92ff919b850e4909ab2261d907ef955f11bc1716733a6cbece38d163a69af8a8560405161168d9190612e50565b60405180910390a3505061169f612849565b50565b60076020528060005260406000206000915090505481565b60006040517f08c379a00000000000000000000000000000000000000000000000000000000081526004016116ee90613993565b60405180910390fd5b600c60009054906101000a900473ffffffffffffffffffffffffffffffffffffffff1681565b6117256124c3565b600073ffffffffffffffffffffffffffffffffffffffff168173ffffffffffffffffffffffffffffffffffffffff1603611794576040517f08c379a000000000000000000000000000000000000000000000000000000000815260040161178b906139ff565b60405180910390fd5b80600460006101000a81548173ffffffffffffffffffffffffffffffffffffffff021916908373ffffffffffffffffffffffffffffffffffffffff16021790555050565b6117e06127e4565b60008111611823576040517f08c379a000000000000000000000000000000000000000000000000000000000815260040161181a906136b8565b60405180910390fd5b80600860003373ffffffffffffffffffffffffffffffffffffffff1673ffffffffffffffffffffffffffffffffffffffff1681526020019081526020016000205410156118a5576040517f08c379a000000000000000000000000000000000000000000000000000000000815260040161189c90613a91565b60405180910390fd5b6118f781600860003373ffffffffffffffffffffffffffffffffffffffff1673ffffffffffffffffffffffffffffffffffffffff1681526020019081526020016000205461283390919063ffffffff16565b600860003373ffffffffffffffffffffffffffffffffffffffff1673ffffffffffffffffffffffffffffffffffffffff1681526020019081526020016000208190555060003373ffffffffffffffffffffffffffffffffffffffff168260405161196090613ae2565b60006040518083038185875af1925050503d806000811461199d576040519150601f19603f3d011682016040523d82523d6000602084013e6119a2565b606091505b50509050806119e6576040517f08c379a00000000000000000000000000000000000000000000000000000000081526004016119dd90613b43565b60405180910390fd5b7f000000000000000000000000000000000000000000000000000000000000000073ffffffffffffffffffffffffffffffffffffffff163373ffffffffffffffffffffffffffffffffffffffff167fa92ff919b850e4909ab2261d907ef955f11bc1716733a6cbece38d163a69af8a84604051611a639190612e50565b60405180910390a350611a74612849565b50565b611a7f6124c3565b600073ffffffffffffffffffffffffffffffffffffffff168173ffffffffffffffffffffffffffffffffffffffff1603611aee576040517f08c379a0000000000000000000000000000000000000000000000000000000008152600401611ae590613bd5565b60405180910390fd5b611af781612720565b50565b60086020528060005260406000206000915090505481565b611b1a6127e4565b60003411611b5d576040517f08c379a0000000000000000000000000000000000000000000000000000000008152600401611b5490613c67565b60405180910390fd5b611baf34600860003373ffffffffffffffffffffffffffffffffffffffff1673ffffffffffffffffffffffffffffffffffffffff16815260200190815260200160002054612a6e90919063ffffffff16565b600860003373ffffffffffffffffffffffffffffffffffffffff1673ffffffffffffffffffffffffffffffffffffffff168152602001908152602001600020819055507f000000000000000000000000000000000000000000000000000000000000000073ffffffffffffffffffffffffffffffffffffffff163373ffffffffffffffffffffffffffffffffffffffff167f8752a472e571a816aea92eec8dae9baf628e840f4929fbcc2d155e6233ff68a734604051611c6f9190612e50565b60405180910390a3611c7f612849565b565b611c896127e4565b60008111611ccc576040517f08c379a0000000000000000000000000000000000000000000000000000000008152600401611cc390613c67565b60405180910390fd5b6000600360009054906101000a900473ffffffffffffffffffffffffffffffffffffffff1673ffffffffffffffffffffffffffffffffffffffff166323b872dd3330856040518463ffffffff1660e01b8152600401611d2d93929190613c87565b6020604051808303816000875af1158015611d4c573d6000803e3d6000fd5b505050506040513d601f19601f82011682018060405250810190611d709190613888565b905080611db2576040517f08c379a0000000000000000000000000000000000000000000000000000000008152600401611da990613d0a565b60405180910390fd5b600360009054906101000a900473ffffffffffffffffffffffffffffffffffffffff1673ffffffffffffffffffffffffffffffffffffffff1663095ea7b3600c60009054906101000a900473ffffffffffffffffffffffffffffffffffffffff16846040518363ffffffff1660e01b8152600401611e31929190613833565b6020604051808303816000875af1158015611e50573d6000803e3d6000fd5b505050506040513d601f19601f82011682018060405250810190611e749190613888565b611eb3576040517f08c379a0000000000000000000000000000000000000000000000000000000008152600401611eaa90613d76565b60405180910390fd5b600b60009054906101000a900473ffffffffffffffffffffffffffffffffffffffff1673ffffffffffffffffffffffffffffffffffffffff1663617ba037600360009054906101000a900473ffffffffffffffffffffffffffffffffffffffff16843060006040518563ffffffff1660e01b8152600401611f379493929190613ddf565b600060405180830381600087803b158015611f5157600080fd5b505af1158015611f65573d6000803e3d6000fd5b50505050611fbb82600760003373ffffffffffffffffffffffffffffffffffffffff1673ffffffffffffffffffffffffffffffffffffffff16815260200190815260200160002054612a6e90919063ffffffff16565b600760003373ffffffffffffffffffffffffffffffffffffffff1673ffffffffffffffffffffffffffffffffffffffff168152602001908152602001600020819055506120516001600960003373ffffffffffffffffffffffffffffffffffffffff1673ffffffffffffffffffffffffffffffffffffffff16815260200190815260200160002054612a6e90919063ffffffff16565b600960003373ffffffffffffffffffffffffffffffffffffffff1673ffffffffffffffffffffffffffffffffffffffff168152602001908152602001600020819055503373ffffffffffffffffffffffffffffffffffffffff167fe00f1b5d37e934593fb70fcb5fd4703e66f533b6f2560437ec119178a815812d600960003373ffffffffffffffffffffffffffffffffffffffff1673ffffffffffffffffffffffffffffffffffffffff168152602001908152602001600020546040516121199190612e50565b60405180910390a2600360009054906101000a900473ffffffffffffffffffffffffffffffffffffffff1673ffffffffffffffffffffffffffffffffffffffff163373ffffffffffffffffffffffffffffffffffffffff167f8752a472e571a816aea92eec8dae9baf628e840f4929fbcc2d155e6233ff68a7846040516121a09190612e50565b60405180910390a36121f133600960003373ffffffffffffffffffffffffffffffffffffffff1673ffffffffffffffffffffffffffffffffffffffff16815260200190815260200160002054612852565b506121fa612849565b50565b6122056127e4565b60008311612248576040517f08c379a000000000000000000000000000000000000000000000000000000000815260040161223f906134cf565b60405180910390fd5b82600760003373ffffffffffffffffffffffffffffffffffffffff1673ffffffffffffffffffffffffffffffffffffffff1681526020019081526020016000205410156122ca576040517f08c379a00000000000000000000000000000000000000000000000000000000081526004016122c190613e70565b60405180910390fd5b61231c83600760003373ffffffffffffffffffffffffffffffffffffffff1673ffffffffffffffffffffffffffffffffffffffff1681526020019081526020016000205461283390919063ffffffff16565b600760003373ffffffffffffffffffffffffffffffffffffffff1673ffffffffffffffffffffffffffffffffffffffff16815260200190815260200160002081905550600360009054906101000a900473ffffffffffffffffffffffffffffffffffffffff1673ffffffffffffffffffffffffffffffffffffffff163373ffffffffffffffffffffffffffffffffffffffff167f8e4c822e918d19a0c45d5e4f767dacbe7be5fae70d86b74130c9a7a7669d387f8585856040516123e2939291906135a8565b60405180910390a36123f2612849565b505050565b600460009054906101000a900473ffffffffffffffffffffffffffffffffffffffff1681565b6005818154811061242d57600080fd5b906000526020600020016000915090505481565b60096020528060005260406000206000915090505481565b60007f01ffc9a7000000000000000000000000000000000000000000000000000000007bffffffffffffffffffffffffffffffffffffffffffffffffffffffff1916827bffffffffffffffffffffffffffffffffffffffffffffffffffffffff1916149050919050565b6124cb612636565b73ffffffffffffffffffffffffffffffffffffffff166124e9610fce565b73ffffffffffffffffffffffffffffffffffffffff161461253f576040517f08c379a000000000000000000000000000000000000000000000000000000000815260040161253690613edc565b60405180910390fd5b565b6125528161254d612636565b612a84565b50565b61255f8282611157565b6126325760016002600084815260200190815260200160002060000160008373ffffffffffffffffffffffffffffffffffffffff1673ffffffffffffffffffffffffffffffffffffffff16815260200190815260200160002060006101000a81548160ff0219169083151502179055506125d7612636565b73ffffffffffffffffffffffffffffffffffffffff168173ffffffffffffffffffffffffffffffffffffffff16837f2f8788117e7eff1d82e926ec794901d17c78024a50270940304540a733656f0d60405160405180910390a45b5050565b600033905090565b6126488282611157565b1561271c5760006002600084815260200190815260200160002060000160008373ffffffffffffffffffffffffffffffffffffffff1673ffffffffffffffffffffffffffffffffffffffff16815260200190815260200160002060006101000a81548160ff0219169083151502179055506126c1612636565b73ffffffffffffffffffffffffffffffffffffffff168173ffffffffffffffffffffffffffffffffffffffff16837ff6391f5c32d9c69d2a47ea670b442974b53935d1edc7fd64eb21e047a839171b60405160405180910390a45b5050565b60008060009054906101000a900473ffffffffffffffffffffffffffffffffffffffff169050816000806101000a81548173ffffffffffffffffffffffffffffffffffffffff021916908373ffffffffffffffffffffffffffffffffffffffff1602179055508173ffffffffffffffffffffffffffffffffffffffff168173ffffffffffffffffffffffffffffffffffffffff167f8be0079c531659141344cd1fd0a4f28419497f9722a3daafe3b4186f6b6457e060405160405180910390a35050565b600260015403612829576040517f08c379a000000000000000000000000000000000000000000000000000000000815260040161282090613f48565b60405180910390fd5b6002600181905550565b6000818361284191906132ae565b905092915050565b60018081905550565b600073ffffffffffffffffffffffffffffffffffffffff16600460009054906101000a900473ffffffffffffffffffffffffffffffffffffffff1673ffffffffffffffffffffffffffffffffffffffff160315612a6a5760005b600580549050811015612a68576000600582815481106128cf576128ce613f68565b5b906000526020600020015490508083101580156129475750600660008573ffffffffffffffffffffffffffffffffffffffff1673ffffffffffffffffffffffffffffffffffffffff168152602001908152602001600020600082815260200190815260200160002060009054906101000a900460ff16155b15612a5457600460009054906101000a900473ffffffffffffffffffffffffffffffffffffffff1673ffffffffffffffffffffffffffffffffffffffff1663ea62781d856040518263ffffffff1660e01b81526004016129a7919061300c565b6020604051808303816000875af19250505080156129e357506040513d601f19601f820116820180604052508101906129e09190613252565b60015b15612a5357506001600660008673ffffffffffffffffffffffffffffffffffffffff1673ffffffffffffffffffffffffffffffffffffffff168152602001908152602001600020600083815260200190815260200160002060006101000a81548160ff0219169083151502179055505b5b508080612a6090613f97565b9150506128ac565b505b5050565b60008183612a7c9190613fdf565b905092915050565b612a8e8282611157565b612b0557612a9b81612b09565b612aa98360001c6020612b36565b604051602001612aba92919061411c565b6040516020818303038152906040526040517f08c379a0000000000000000000000000000000000000000000000000000000008152600401612afc919061418f565b60405180910390fd5b5050565b6060612b2f8273ffffffffffffffffffffffffffffffffffffffff16601460ff16612b36565b9050919050565b606060006002836002612b4991906141b1565b612b539190613fdf565b67ffffffffffffffff811115612b6c57612b6b6141f3565b5b6040519080825280601f01601f191660200182016040528015612b9e5781602001600182028036833780820191505090505b5090507f300000000000000000000000000000000000000000000000000000000000000081600081518110612bd657612bd5613f68565b5b60200101907effffffffffffffffffffffffffffffffffffffffffffffffffffffffffffff1916908160001a9053507f780000000000000000000000000000000000000000000000000000000000000081600181518110612c3a57612c39613f68565b5b60200101907effffffffffffffffffffffffffffffffffffffffffffffffffffffffffffff1916908160001a90535060006001846002612c7a91906141b1565b612c849190613fdf565b90505b6001811115612d24577f3031323334353637383961626364656600000000000000000000000000000000600f861660108110612cc657612cc5613f68565b5b1a60f81b828281518110612cdd57612cdc613f68565b5b60200101907effffffffffffffffffffffffffffffffffffffffffffffffffffffffffffff1916908160001a905350600485901c945080612d1d90614222565b9050612c87565b5060008414612d68576040517f08c379a0000000000000000000000000000000000000000000000000000000008152600401612d5f90614297565b60405180910390fd5b8091505092915050565b600080fd5b600080fd5b60007fffffffff0000000000000000000000000000000000000000000000000000000082169050919050565b612db181612d7c565b8114612dbc57600080fd5b50565b600081359050612dce81612da8565b92915050565b600060208284031215612dea57612de9612d72565b5b6000612df884828501612dbf565b91505092915050565b60008115159050919050565b612e1681612e01565b82525050565b6000602082019050612e316000830184612e0d565b92915050565b6000819050919050565b612e4a81612e37565b82525050565b6000602082019050612e656000830184612e41565b92915050565b600073ffffffffffffffffffffffffffffffffffffffff82169050919050565b6000819050919050565b6000612eb0612eab612ea684612e6b565b612e8b565b612e6b565b9050919050565b6000612ec282612e95565b9050919050565b6000612ed482612eb7565b9050919050565b612ee481612ec9565b82525050565b6000602082019050612eff6000830184612edb565b92915050565b6000612f1082612e6b565b9050919050565b612f2081612f05565b8114612f2b57600080fd5b50565b600081359050612f3d81612f17565b92915050565b600060208284031215612f5957612f58612d72565b5b6000612f6784828501612f2e565b91505092915050565b6000819050919050565b612f8381612f70565b8114612f8e57600080fd5b50565b600081359050612fa081612f7a565b92915050565b600060208284031215612fbc57612fbb612d72565b5b6000612fca84828501612f91565b91505092915050565b612fdc81612f70565b82525050565b6000602082019050612ff76000830184612fd3565b92915050565b61300681612f05565b82525050565b60006020820190506130216000830184612ffd565b92915050565b6000806040838503121561303e5761303d612d72565b5b600061304c85828601612f91565b925050602061305d85828601612f2e565b9150509250929050565b61307081612e37565b811461307b57600080fd5b50565b60008135905061308d81613067565b92915050565b600080fd5b600080fd5b600080fd5b60008083601f8401126130b8576130b7613093565b5b8235905067ffffffffffffffff8111156130d5576130d4613098565b5b6020830191508360018202830111156130f1576130f061309d565b5b9250929050565b60008060006040848603121561311157613110612d72565b5b600061311f8682870161307e565b935050602084013567ffffffffffffffff8111156131405761313f612d77565b5b61314c868287016130a2565b92509250509250925092565b6000806040838503121561316f5761316e612d72565b5b600061317d85828601612f2e565b925050602061318e8582860161307e565b9150509250929050565b60006131a382612eb7565b9050919050565b6131b381613198565b82525050565b60006020820190506131ce60008301846131aa565b92915050565b6000602082840312156131ea576131e9612d72565b5b60006131f88482850161307e565b91505092915050565b600061320c82612eb7565b9050919050565b61321c81613201565b82525050565b60006020820190506132376000830184613213565b92915050565b60008151905061324c81613067565b92915050565b60006020828403121561326857613267612d72565b5b60006132768482850161323d565b91505092915050565b7f4e487b7100000000000000000000000000000000000000000000000000000000600052601160045260246000fd5b60006132b982612e37565b91506132c483612e37565b92508282039050818111156132dc576132db61327f565b5b92915050565b600082825260208201905092915050565b7f615553444320616464726573732063616e6e6f74206265207a65726f00000000600082015250565b6000613329601c836132e2565b9150613334826132f3565b602082019050919050565b600060208201905081810360008301526133588161331c565b9050919050565b7f4161766520506f6f6c20616464726573732063616e6e6f74206265207a65726f600082015250565b60006133956020836132e2565b91506133a08261335f565b602082019050919050565b600060208201905081810360008301526133c481613388565b9050919050565b7f416363657373436f6e74726f6c3a2063616e206f6e6c792072656e6f756e636560008201527f20726f6c657320666f722073656c660000000000000000000000000000000000602082015250565b6000613427602f836132e2565b9150613432826133cb565b604082019050919050565b600060208201905081810360008301526134568161341a565b9050919050565b7f5370656e6420616d6f756e74206d75737420626520677265617465722074686160008201527f6e207a65726f0000000000000000000000000000000000000000000000000000602082015250565b60006134b96026836132e2565b91506134c48261345d565b604082019050919050565b600060208201905081810360008301526134e8816134ac565b9050919050565b7f496e73756666696369656e74204554482062616c616e63650000000000000000600082015250565b60006135256018836132e2565b9150613530826134ef565b602082019050919050565b6000602082019050818103600083015261355481613518565b9050919050565b82818337600083830152505050565b6000601f19601f8301169050919050565b600061358783856132e2565b935061359483858461355b565b61359d8361356a565b840190509392505050565b60006040820190506135bd6000830186612e41565b81810360208301526135d081848661357b565b9050949350505050565b7f5573657220616464726573732063616e6e6f74206265207a65726f0000000000600082015250565b6000613610601b836132e2565b915061361b826135da565b602082019050919050565b6000602082019050818103600083015261363f81613603565b9050919050565b7f5769746864726177616c20616d6f756e74206d7573742062652067726561746560008201527f72207468616e207a65726f000000000000000000000000000000000000000000602082015250565b60006136a2602b836132e2565b91506136ad82613646565b604082019050919050565b600060208201905081810360008301526136d181613695565b9050919050565b7f496e73756666696369656e74206465706f7369746564205553444320746f207760008201527f6974686472617700000000000000000000000000000000000000000000000000602082015250565b60006137346027836132e2565b915061373f826136d8565b604082019050919050565b6000602082019050818103600083015261376381613727565b9050919050565b600060608201905061377f6000830186612ffd565b61378c6020830185612e41565b6137996040830184612ffd565b949350505050565b7f41617665207769746864726177616c206661696c6564206f722070617274696160008201527f6c00000000000000000000000000000000000000000000000000000000000000602082015250565b60006137fd6021836132e2565b9150613808826137a1565b604082019050919050565b6000602082019050818103600083015261382c816137f0565b9050919050565b60006040820190506138486000830185612ffd565b6138556020830184612e41565b9392505050565b61386581612e01565b811461387057600080fd5b50565b6000815190506138828161385c565b92915050565b60006020828403121561389e5761389d612d72565b5b60006138ac84828501613873565b91505092915050565b7f55534443207769746864726177616c207472616e73666572206661696c656400600082015250565b60006138eb601f836132e2565b91506138f6826138b5565b602082019050919050565b6000602082019050818103600083015261391a816138de565b9050919050565b7f4e6f7420696d706c656d656e7465643a2072657175697265732075736572206c60008201527f69737420747261636b696e670000000000000000000000000000000000000000602082015250565b600061397d602c836132e2565b915061398882613921565b604082019050919050565b600060208201905081810360008301526139ac81613970565b9050919050565b7f4e465420616464726573732063616e6e6f74206265207a65726f000000000000600082015250565b60006139e9601a836132e2565b91506139f4826139b3565b602082019050919050565b60006020820190508181036000830152613a18816139dc565b9050919050565b7f496e73756666696369656e74206465706f73697465642045544820746f20776960008201527f7468647261770000000000000000000000000000000000000000000000000000602082015250565b6000613a7b6026836132e2565b9150613a8682613a1f565b604082019050919050565b60006020820190508181036000830152613aaa81613a6e565b9050919050565b600081905092915050565b50565b6000613acc600083613ab1565b9150613ad782613abc565b600082019050919050565b6000613aed82613abf565b9150819050919050565b7f455448207769746864726177616c206661696c65640000000000000000000000600082015250565b6000613b2d6015836132e2565b9150613b3882613af7565b602082019050919050565b60006020820190508181036000830152613b5c81613b20565b9050919050565b7f4f776e61626c653a206e6577206f776e657220697320746865207a65726f206160008201527f6464726573730000000000000000000000000000000000000000000000000000602082015250565b6000613bbf6026836132e2565b9150613bca82613b63565b604082019050919050565b60006020820190508181036000830152613bee81613bb2565b9050919050565b7f4465706f73697420616d6f756e74206d7573742062652067726561746572207460008201527f68616e207a65726f000000000000000000000000000000000000000000000000602082015250565b6000613c516028836132e2565b9150613c5c82613bf5565b604082019050919050565b60006020820190508181036000830152613c8081613c44565b9050919050565b6000606082019050613c9c6000830186612ffd565b613ca96020830185612ffd565b613cb66040830184612e41565b949350505050565b7f55534443207472616e73666572206661696c6564000000000000000000000000600082015250565b6000613cf46014836132e2565b9150613cff82613cbe565b602082019050919050565b60006020820190508181036000830152613d2381613ce7565b9050919050565b7f4161766520617070726f7665206661696c656400000000000000000000000000600082015250565b6000613d606013836132e2565b9150613d6b82613d2a565b602082019050919050565b60006020820190508181036000830152613d8f81613d53565b9050919050565b6000819050919050565b600061ffff82169050919050565b6000613dc9613dc4613dbf84613d96565b612e8b565b613da0565b9050919050565b613dd981613dae565b82525050565b6000608082019050613df46000830187612ffd565b613e016020830186612e41565b613e0e6040830185612ffd565b613e1b6060830184613dd0565b95945050505050565b7f496e73756666696369656e7420555344432062616c616e636500000000000000600082015250565b6000613e5a6019836132e2565b9150613e6582613e24565b602082019050919050565b60006020820190508181036000830152613e8981613e4d565b9050919050565b7f4f776e61626c653a2063616c6c6572206973206e6f7420746865206f776e6572600082015250565b6000613ec66020836132e2565b9150613ed182613e90565b602082019050919050565b60006020820190508181036000830152613ef581613eb9565b9050919050565b7f5265656e7472616e637947756172643a207265656e7472616e742063616c6c00600082015250565b6000613f32601f836132e2565b9150613f3d82613efc565b602082019050919050565b60006020820190508181036000830152613f6181613f25565b9050919050565b7f4e487b7100000000000000000000000000000000000000000000000000000000600052603260045260246000fd5b6000613fa282612e37565b91507fffffffffffffffffffffffffffffffffffffffffffffffffffffffffffffffff8203613fd457613fd361327f565b5b600182019050919050565b6000613fea82612e37565b9150613ff583612e37565b925082820190508082111561400d5761400c61327f565b5b92915050565b600081905092915050565b7f416363657373436f6e74726f6c3a206163636f756e7420000000000000000000600082015250565b6000614054601783614013565b915061405f8261401e565b601782019050919050565b600081519050919050565b60005b83811015614093578082015181840152602081019050614078565b60008484015250505050565b60006140aa8261406a565b6140b48185614013565b93506140c4818560208601614075565b80840191505092915050565b7f206973206d697373696e6720726f6c6520000000000000000000000000000000600082015250565b6000614106601183614013565b9150614111826140d0565b601182019050919050565b600061412782614047565b9150614133828561409f565b915061413e826140f9565b915061414a828461409f565b91508190509392505050565b60006141618261406a565b61416b81856132e2565b935061417b818560208601614075565b6141848161356a565b840191505092915050565b600060208201905081810360008301526141a98184614156565b905092915050565b60006141bc82612e37565b91506141c783612e37565b92508282026141d581612e37565b915082820484148315176141ec576141eb61327f565b5b5092915050565b7f4e487b7100000000000000000000000000000000000000000000000000000000600052604160045260246000fd5b600061422d82612e37565b9150600082036142405761423f61327f565b5b600182039050919050565b7f537472696e67733a20686578206c656e67746820696e73756666696369656e74600082015250565b60006142816020836132e2565b915061428c8261424b565b602082019050919050565b600060208201905081810360008301526142b081614274565b905091905056fea2646970667358221220e254bebc648e1fae7b082e7cf9843ba57cc3db09fb312ae97e73eea82ef4e2a964736f6c63430008140033",
  "linkReferences": {},
  "deployedLinkReferences": {}
}